:020000040800F2
:1000000000000320BD0500088D1F00088F1F000899
:10001000911F0008931F0008951F000800000000B2
:100020000000000000000000000000003171000826
:10003000971F000800000000C1710008356A000821
:100040000D0600080D0600080D0600080D06000844
:100050000D0600080D060008BD1F00080D0600086B
:100060000D0600080D0600080D0600080D06000824
:100070000D0600080D0600080D0600080D06000814
:100080000D0600080D0600080D0600080D06000804
:100090000D0600080D0600080D0600080D060008F4
:1000A0000D0600080D0600080D0600080D060008E4
:1000B0000D0600080D0600080D0600080D060008D4
:1000C0000D0600080D0600080D0600080D060008C4
:1000D0000D0600080D0600080D0600080D060008B4
:1000E0000D0600080D0600080D0600080D060008A4
:1000F0000D0600080D0600080D0600080D06000894
:100100000D0600080D0600080D0600080D06000883
:100110000D0600080D060008991F00080D060008CE
:100120000D0600080D0600080D0600080D06000863
:100130000D0600080D0600080D0600080D06000853
:100140000D0600080D0600080D0600080D06000843
:100150000D0600080D0600080D0600080D06000833
:100160000D0600080D0600080D0600080D06000823
:100170000D0600080D0600080D060008000000002E
:100180000D0600080D0600080D0600080D06000803
:100190000D0600080D0600080D0600080D060008F3
:0C01A000A51F00080D060008B11F000894
:1001B00010B5054C237833B9044B13B10448AFF3A1
:1001C00000800123237010BDF0000020000000001B
:1001D000EC47010808B5034B1BB103490348AFF3D3
:1001E000008008BD00000000F4000020EC4701087A
:1001F00001F0FF01102A2BDB10F0070F08D010F8D8
:10020000013B013A8B422DD010F0070F42B3F6D1DB
:10021000F0B441EA012141EA014122F007047FF0F4
:1002200000070023F0E80256083C85EA010586EA4B
:10023000010685FA47F5A3FA87F586FA47F6A5FA87
:1002400087F68EB9EED1F0BC01F0FF0102F0070293
:1002500032B110F8013B013A83EA010313B1F8D13E
:100260000020704701387047002D06BF354603381F
:10027000073815F0010F07D1013015F4807F02BF58
:10028000013015F4C03F0130F0BC0138704700BFA9
:1002900053B94AB9002908BF00281CBF4FF0FF31ED
:1002A0004FF0FF3000F088B9ADF1080C6DE904CED5
:1002B00000F006F8DDF804E0DDE9022304B0704741
:1002C0002DE9F047089D8E4604468846002B4AD10A
:1002D0008A42174662D9B2FA82F64EB1C6F12003BD
:1002E00001FA06F820FA03F3B74043EA0808B440DD
:1002F0004FEA174E1FFA87FCB8FBFEF1230C0EFBEA
:10030000118843EA084301FB0CF29A4209D9FB1811
:1003100001F1FF3080F0EA809A4240F2E780023932
:100320003B449A1AA3B2B2FBFEF00EFB102243EA42
:10033000024300FB0CFC9C4509D9FB1800F1FF327D
:1003400080F0D6809C4540F2D3803B44023840EA9E
:100350000140A3EB0C0300211DB1F3400022C5E9CD
:100360000032BDE8F0878B4205D90DB1C5E9000127
:1003700000210846F5E7B3FA83F1002946D1734519
:1003800002D3824200F20581841A6EEB030201203F
:100390009046002DE5D0C5E90048E2E7002A00F0CC
:1003A0009080B2FA82F6002E40F0A4808A1A030CE4
:1003B0004FEA174E80B2BCB20121B2FBFEFC0EFB2D
:1003C0001C2243EA024304FB0CF29A4207D9FB18B1
:1003D0000CF1FF3802D29A4200F2E080C4469B1A28
:1003E000B3FBFEF20EFB123340EA034302FB04F4BC
:1003F0009C4207D9FB1802F1FF3002D29C4200F266
:10040000CA8002461B1B42EA0C40A5E7C1F1200648
:100410008B4022FA06F71F430EFA01F420FA06F386
:100420002EFA06FE4FEA1749234300FA01F81FFA95
:1004300087FCBEFBF9F01C0C09FB10EE44EA0E44ED
:1004400000FB0CFEA64502FA01F209D93C1900F1A5
:10045000FF3A80F09C80A64540F2998002383C44E7
:10046000A4EB0E041FFA83FEB4FBF9F309FB13445B
:100470004EEA044403FB0CFCA44508D93C1903F1E3
:10048000FF3E80F08280A4457FD9023B3C4443EA92
:100490000040A4EB0C04A0FB02EC64457346E1466B
:1004A00062D35FD05DB1B8EB030264EB090404FAD8
:1004B00006F622FA01F31E43CC40C5E90064002190
:1004C0004FE7B1FBF2FC010C41EA0E4180B240EA79
:1004D00001423B4638463C46B846BE462026B1FB64
:1004E000F7F1A2EB080241EA0C4166E7014618E782
:1004F00010462CE7C6F120022EFA02F3B740B140B5
:1005000020FA02F24FEA174E0A43B3FBFEF8BCB2E0
:100510000EFB1833110C41EA034108FB04F9B0400B
:1005200089454FEA104380B23ED9791808F1FF3C63
:1005300001D289451FD8A1EB0901B1FBFEF909FBE6
:1005400004F80EFB191192B242EA0142424529D247
:10055000BA1809F1FF31C4D24245C2D2A9F1020151
:100560003A44BEE7F0459DD2BEEB02036CEB070CAC
:100570000138E14696E7A7EB09094944A8F1020CC6
:10058000B1FBFEF909FB04F8DBE773467FE7504651
:1005900066E70846FDE63B44023A33E7ACF1020C5D
:1005A0003B441CE749469CE7A1EB0901C446B1FB6B
:1005B000FEF909FB04F8C4E7704700BFDFF834D048
:1005C000002103E00C4B5B58435004310B480C4BAB
:1005D00042189A42F6D30B4A02E0002342F8043B49
:1005E000094B9A42F9D303F009FE13F091FB00F096
:1005F000F3FE704700000320A41A0F08000000203B
:10060000F0000020F000002054290120FEE700F057
:10061000C1BC00F02FBD704710B50421044613F093
:1006200099F8204610BD000038B50C4B0C4C1880D2
:100630000C4B822019806368984740F6110398425A
:100640000AD1094D23682C60822098472B688220AC
:10065000DB689847002038BD0120FCE71601002028
:100660004C00002014010020180100204FF4A0715C
:10067000F020FFF7D9BF0000F7B5354D2B680446D1
:100680001B6982209847208000284BD02B680DF1F1
:1006900006025B6901A982209847BDF8063040F642
:1006A0007462934240D9ADF80620BDF80630D21AE4
:1006B00092B20A2A3ED90B23B2FBF3F2254B1B88D8
:1006C0009A4201D9013B9AB2BDF80430224840F663
:1006D000B8318B4230D8C3F571630E3301689BB2D9
:1006E0000F25B3FBF5F31D4D2D88AB4284BF05F1FB
:1006F000FF35ABB28B421D468EB226D99B1B99B2F9
:10070000174E3768BBB2BA428CBFD31A9B1A9BB242
:1007100019440529C8BF05600368C8BF32606380FB
:100720003368A38003B0F0BDB32B9CBFB423ADF8F6
:100730000630BAE70022C7E7C3F56D6308339BB202
:100740000E2B0168CCD800252B46C91A89B2D7E7F1
:1007500018010020140100201001002016010020C3
:100760000C01002037B568460D461446FFF784FF9C
:10077000BDF8000030B1BDF802302B60BDF8043088
:100780002360012003B030BD032821D8DFE800F04A
:10079000020B12190F4B1A68B2FA82F252090421A5
:1007A0000D4804F0D5B90B4B5A68B2FA82F25209DF
:1007B0000821F5E7074B9A68B2FA82F25209102134
:1007C000EEE7044BDA68B2FA82F252092021E7E739
:1007D000704700BF1C01002000100240032821D8F0
:1007E000DFE800F0020B12190F4B1A68003A18BF2D
:1007F000012204210D4804F0ABB90B4B5A68003AB2
:1008000018BF01220821F5E7074B9A68003A18BF84
:1008100001221021EEE7044BDA68003A18BF0122EA
:100820002021E7E7704700BF1C01002000100240B4
:1008300003280DD8DFE800F00206080A0421054865
:1008400004F08BB90821FAE71021F8E72021F6E738
:10085000704700BF0010024008B5032811D8DFE838
:1008600000F0020A0C0E0421074804F06BF9431E45
:100870005842584108BD0821F6E71021F4E720212D
:10088000F2E70020F3E700BF0010024070B5084D0A
:1008900000240126E0B2FFF7DFFF18B12B68012B1F
:1008A00018BF2E600134052C05F10405F2D170BD8E
:1008B0001C010020012380F8781080F879307047FF
:1008C0007047002070470000034B4164003918BF97
:1008D00001211970704700BFDF25012070470020FB
:1008E0007047836B0BB10846184770474FF6FF708F
:1008F0007047406803689B691847704770477047A6
:100900007047704770B5044600F05EFC2368D3F86A
:100910008C50044BD4E90F122046AC46BDE8704021
:10092000604700BF000000D008B503680446D3F854
:100930008430984723682046DB6F984700F0ECF836
:10094000236820465B6F9847292000F0F9FF00F0EC
:10095000E3F8236820465B6F9847F8E710B5044634
:1009600009F008FA23682046D3F8BC30BDE81040EF
:10097000184700F01BBC00F01FBC00F04BBC00F09F
:10098000F1BB00F04BBC00F053BC00F0F5BB08F02D
:1009900013BC10B58421044612F0DCFE204610BDC5
:1009A00010B590F8341090F878400C4B8C421A78BF
:1009B00009D03AB90A4A0B491488088810800C807B
:1009C00001221A7010BD002AFCD0054A054914887E
:1009D000088810800C800022F3E700BFD825012092
:1009E000D4250120D625012070B50D46194635B90C
:1009F000094B0A4A0A4840F2FF2112F0D9FEC0E929
:100A00000F52084B003A18BF01221A700368BDE864
:100A10007040D3F8903018476C480108A44801088A
:100A2000F2480108DE25012008B5094B1B888B42DE
:100A300003D8084B1B88934205D9074B074A08483F
:100A4000A32112F0B5FE074B1980074B1A8008BD91
:100A5000D4250120D6250120374901089A490108EB
:100A6000F2480108DA250120DC250120034690F830
:100A70007A0018B1586803681B681847704700006F
:100A8000012108B50022084606F05EF80A4B1860FE
:100A900028B90A4B0A4A28210A4812F089FE002286
:100AA0000421012006F0F8F8074B186018B9074B2D
:100AB000034A2C21F0E708BD30010020DD49010880
:100AC000264A0108554A01082C010020994A0108CC
:100AD000024B4FF0FF31186806F080B8300100205B
:100AE000014B186806F0A6B830010020024B002127
:100AF000186806F073B800BF30010020FFF7F0BFA0
:100B000003480449006800231A4606F000B900BFF4
:100B10002C0100200400002013B5084C00231A46C5
:100B200001A9206806F024F920684FF0FF33002265
:100B300001A906F01DF902B010BD00BF2C01002074
:100B400003685B6C18470120704703689B6A18476D
:100B500082B0002301930D4B1A6B42F400021A631A
:100B60001A6B02F400020192019A1A6942F400021F
:100B70001A611A6922F400021A61054B054A1A61CA
:100B8000054B4FF080629A6002B070470038024017
:100B900000170020290E000800E100E040F2EF30CD
:100BA00070470000054B0360054B4FF08062C3F8AF
:100BB0008820BFF34F8FBFF36F8F7047A455010894
:100BC00000E100E010B504464FF45A61FFF7EAFF78
:100BD000204612F0BFFD204610BD000008B50A28CF
:100BE00009D8DFE800F006100E08080808101010F9
:100BF0001000022008BD054B054A0648872112F067
:100C0000D7FD0020F6E70120F4E700BFDB4A01082A
:100C1000F64A0108414B010838B50C46887FFFF7BA
:100C2000DDFFA58AE28A164B2169586342EA054234
:100C30005A64628BD963521B1A642568082D0ED141
:100C40009A611A615862207F0E4A42EA0062DA61B4
:100C5000E2681A620C4A5961D9601A6038BD0022F4
:100C6000D8611A61E1680A0A480902F4784200F47E
:100C7000FC600243C1F3C4010A439A63034AECE7F0
:100C800000B002400900010001020200010203005D
:100C900008B50B280BD8DFE800F00612100A0A0A84
:100CA0000A0808080808022008BD0520FCE7054BD3
:100CB000054A0648662112F07BFD0020F4E701207A
:100CC000F2E700BFDB4A0108834B0108414B0108F2
:100CD0002DE9F04191F81D800C464046FFF7D8FF02
:100CE000A77F05463846FFF7D3FF06463846FFF78D
:100CF00075FFA18A628B444B521A1A649A61228B47
:100D0000521A1A61E28A586342EA01425A6421691E
:100D10006268D963DA602068802828D0227F0FD8E3
:100D2000202867D0402865D004281AD0364B45EAE1
:100D3000026545F40035B845DD6161D0334A44E0D1
:100D4000B0F5807F04D0B0F5007FEFD1304800E0EF
:100D5000304840EA0262DA61E2681A625E62596112
:100D600032E045EA026242F40032DA61F6E7A06856
:100D7000021DDA62227F45EA026545F40035DD6135
:100D80005E625961017841B1012921D0224B234A89
:100D9000234840F2111112F00BFDDA69418822F468
:100DA0007F42013922F0100242EA0122DA61012178
:100DB000154BDA6942F02002DA61DA699206FCD456
:100DC00010229A600029B9D0164A1A60BDE8F08155
:100DD000B2F1FF01DA69408822F47F4200F1FF306E
:100DE00022F0100242EA002242F0100218BF012154
:100DF000DA61DDE745EA0262034B42F40032B4E710
:100E000040F20122E1E700BF00B002400102010010
:100E1000090002000A000200CD4B0108E74B01085F
:100E2000414B010801020200024B1B68586803682D
:100E30005B691847E025012070B5044625460A4B3A
:100E40000C30002660602672667245F8203B6022F6
:100E5000294609F0CBF804F55A63EE6024359D422B
:100E6000FBD1204670BD00BFA4550108012070478A
:100E700014207047142303FB01000830704714232B
:100E800003FB010008307047012070474FF44770A2
:100E900070474FF4477303FB0100083070474FF46D
:100EA000477303FB01000830704701207047102092
:100EB000704700EB01100830704700EB011008305C
:100EC0007047084601F038BC10B5034B0360044678
:100ED00007F0C9FE204610BD5C56010810B5044657
:100EE000FFF7F2FF20461C2112F034FC204610BD13
:100EF00010B5034B0360044607F0B5FE204610BD55
:100F00002856010810B50446FFF7F2FF20464FF4BB
:100F1000497112F01FFC204610BD000010B5034BB4
:100F20000360044607F09FFE204610BDF4550108FB
:100F300010B50446FFF7F2FF2046182112F00AFC14
:100F4000204610BD10B5084B0360044600F55470F0
:100F5000FFF7BAFF04F12C00FFF7CAFF04F11400F9
:100F6000FFF7DCFF204610BD9056010808B5024887
:100F7000FFF7E8FF08BD00BFF00F002010B50446E2
:100F8000FFF7E0FF204640F2D44112F0E3FB204699
:100F900010BD00002DE9F34101F09EF8054601F077
:100FA0009FF80024014623462846224600940FF06D
:100FB000E9FC254B254A264D1A60204602F0A4FB89
:100FC00024480FF047FC2B68BFF35B8FDB0735D459
:100FD000284612F0C1FB88B31F4C204B236004F558
:100FE0005E7604F1140004F12C0804F55477606077
:100FF000C4F80880E760266107F036FE184B63618D
:10100000404607F031FE174BE362384607F02CFEEE
:10101000154BC4F8503304F55B7002F0F5FB224623
:1010200004F55B71304602F0E5FB304601F084FBCD
:101030000E4812F0DBFB284612F09AFB0C4802B077
:10104000BDE8F041FFF75EBC3C260120B80100205E
:10105000EC0F002008000020F00F0020905601083F
:10106000F4550108285601085C5601086D0F000868
:10107000340100200148FFF757BC00BF34010020B5
:1010800070B5254E254C264D264B23603046FFF784
:10109000D3FE284610F0D6FA234B2448DC60002209
:1010A0004FF48071C3E9121221491A86C3E91A125A
:1010B000204983F85820C3E91E011F49C3F8801056
:1010C0001E491F480B60F021C3E90422C3E9062230
:1010D000C3E90822C3E90A22C3E90E22C3E91022A8
:1010E000C3E91422C3E917225A6683F870205A67AD
:1010F000C3E9016501801348018013484FF4A071D2
:1011000001801248018012490A70012283F83420BC
:10111000104A1A6070BD00BF48020020E80F00208E
:10112000BC0100205C4801083401002000000101DE
:1011300001000001000450001A001400E025012005
:10114000D4250120DA250120D6250120DC25012027
:10115000D8250120B85401080148FFF723BD00BF7E
:1011600048020020034B902283F85A2383F8582327
:10117000704700BF00E100E0094A0A49D3680A4805
:10118000C3F30A03013B9BB20B801169C1F30A014F
:10119000013901801364536B43F0010353637047BB
:1011A00000680140C6140020C4140020014BD3F88D
:1011B000AC00704700680140024B0122C3F8AC103C
:1011C0005A6270470068014070B5044608F049F85B
:1011D00023689D6E0BF098FD01462046A8472368C2
:1011E000054AD3F88C502046AC460023BDE8704039
:1011F000A2F51631604700BF00B004D008F018B85F
:1012000090F84B3013B1024B01221A7008F01CB851
:10121000C814002007F0D6BF08F045B9034B4FF0C3
:1012200080629A604FF080729A60704700E100E03F
:10123000084B4FF08062C3F88820BFF34F8FBFF395
:101240006F8F4FF08072C3F88820BFF34F8FBFF3CA
:101250006F8F704700E100E038B5184C23685BB32E
:10126000174B184A1B6C11888B4216D1164B1988E4
:1012700004F060FA236893F86A200025013283F8AD
:101280006A2083F87C50FFF73BFC206808F072FD71
:101290002846BDE83840FFF777BA04F04BFA2468D7
:1012A000236820461B6A9847012384F87C3000207D
:1012B000BDE83840FFF792BA38BD00BFE0250120F5
:1012C00000680140C6140020C414002007B5064B76
:1012D000ADF806001B68054801220DF1060104F077
:1012E00077FF03B05DF804FB0C000020AC15002074
:1012F00008B50F4D0F4C284603F074F8204603F054
:1013000071F80121284603F0EBF80121204603F093
:10131000E7F8284603F037F9074B1880204603F01A
:1013200032F9064B1880642005F002FCE3E700BFA9
:1013300030150020E8140020E6140020E4140020FA
:1013400030B595B0102200210AA812F038FC142202
:10135000002103A812F033FC00241D4B01941A6CE9
:1013600042F080521A641B6C03F080530193019B7E
:10137000184B02941A6842F440421A601B6803F446
:10138000404302930122029B4FF48033CDE90823AE
:1013900002254FF48003CDE90E5308214FF4A873C2
:1013A000CDE9101308A804231393129504F0E0F973
:1013B0000F23CDE903354FF4A0504FF48053CDE90E
:1013C0000603052103A8059404F0AEFB15B030BD5B
:1013D00000380240007000402DE980489BB002F0C8
:1013E0001BFFFFF7ADFF142200210DA8002412F00F
:1013F000E6FBC64B00941A6BC548C64E42F010027D
:101400001A631A6B02F010020092009A01941A6B90
:1014100042F020021A631A6B02F020020192019A34
:1014200002941A6B42F080021A631A6B02F0800277
:101430000292029A03941A6B42F004021A631A6B26
:1014400002F004020392039A04941A6B42F0010220
:101450001A631A6B02F001020492049A05941A6B43
:1014600042F002021A631A6B02F002020592059A18
:1014700006941A6B42F040021A631A6B02F04002A3
:101480000692069A07941A6B42F008021A631B6BC5
:1014900003F00803079322463C21079B03F058FB07
:1014A0009D482246042103F053FB22469B484FF4FB
:1014B0004051012503F04CFB4FF0030A3C239448B4
:1014C000CDF840A00DA94FF0020B0427CDE90D3552
:1014D0000F9403F053FA9048CDF840B00DA9CDE930
:1014E0000D750F9403F04AFA4FF440538B480DA941
:1014F000CDE90D35CDE90F4B03F040FA88480F9444
:101500000DA9CDE90D5403F039FA0DA90C23854836
:101510000F95CDE90D3403F031FA8348834B036016
:1015200003F022F9824A834B3462C6E90023304635
:101530004FF48043C6E90434C6E90244C6E90644D0
:1015400003F006FD1021304603F042FF21463046ED
:1015500003F05DFF7848794984624FF48273C0E9F3
:1015600000134FF400761823C0E906630A23744E73
:10157000C362C0E90244C0E90444C0E9084404F07D
:10158000CBFD704BCDF834B04FF01009C6E90035F3
:101590004023C6E904934FF4C073C6E906344FF400
:1015A0000063C6E908344FF40053B3620DA9072362
:1015B0003046CDE9103ACDE90E374FF00808C6E9BC
:1015C0000247CDE912BB04F0A3FC4FF6FF7209A954
:1015D0003046CDE90A85089409950C9404F0B8FCCE
:1015E000284602F045FE4FF6FF7209A93046CDE9C4
:1015F00009B8CDE90B5404F0ABFC4FF6FF7209A912
:101600003046CDE909A8CDE90B7404F0A1FC4FF4F4
:101610000C730893089B0C934FF6FF7209A9304690
:10162000CDE909780B9504F093FC40F26A513046FD
:1016300004F0ACFC342221460DEB020012F0BFFA9C
:10164000414E424B3461C6E900340923C6E90535F1
:101650001D2340F20D1CC6E9073A40F24313C6E9C8
:1016600009C340F2171E40F247133046C6E90BE3A8
:10167000C6E90244B48686F8364003F063FFFF21D2
:10168000F022CDE912144FF0050A4FF480614FF4B7
:10169000A073CDE90E24CDE9141ACDE916420DA9A7
:1016A00022463046CDE9103B294E18930D94ADF8F3
:1016B00064408DF8664004F010F8264B33601B68D8
:1016C00098473368244EDB689847244B3046C6E978
:1016D0000034C6E902B4C6E90A4BC6E90C4403F07B
:1016E00053F82946304603F005F9FEF790FF4A46C5
:1016F00021460DA812F063FA194E1A4BDFF868B0B4
:101700003461C6E90034304630E000BF00380240A2
:1017100000100240AC16002000080240000C0240FD
:101720000000024000180240401700200030024034
:10173000005C0040A0860100AC1500200050014074
:1017400078150020400100A0041600200068014028
:10175000CC140020140000200017002000B002402C
:1017600030150020002001400100000F4FF00073F1
:10177000B360347686F82040F462C6F828B0F4608E
:10178000F56186F83040756102F086FD0D220DA9E5
:101790003046CDE90D25224E0F9402F0F7FE21468A
:1017A0004A460DA812F00BFA1E4A34614FF000733E
:1017B0003046B360C6E90024C6E90AB4347686F838
:1017C0002040F460F56186F83040756102F064FDF8
:1017D0000DA93046CDE90DA50F9402F0D7FE05F016
:1017E00037F9114A2946404605F056FA0F4B104A80
:1017F00018603946484605F04FFA0E4B0E4A1860FD
:1018000021460E4805F050F90D4B0E4A186021464E
:101810000D4805F049F90D4B186005F02BF9FEE76E
:10182000E814002000210140B4560108D41400201F
:101830009C560108D0140020F0560108F11200084F
:10184000DC140020CC56010813060008D814002030
:10185000704770477FB5094B8DF817201B680293BE
:101860000DF117020123009201930A460146044834
:1018700003F016FC07B05DF804FB00BF1000002069
:10188000AC1600207FB500238DF81730084B1B687D
:1018900002930A4601230DF11701009101930146BD
:1018A000044803F08DFC9DF8170007B05DF804FBB9
:1018B00010000020AC1600201FB5084C24680092D0
:1018C000CDE901340A4601230146054803F078FCBE
:1018D000003818BF012004B010BD00BF1000002068
:1018E000AC16002002F0C4BC10B5064C0022204605
:1018F000042103F02DF920460122BDE81040042107
:1019000003F026B90008024038B50B4D0446012209
:101910000A484FF4005103F01BF900220421284625
:1019200003F016F92046FFF7D1FC28460122BDE856
:101930003840042103F00CB900080240000C0240BA
:1019400038B50B4D044600220A484FF4005103F00D
:10195000FFF800220421284603F0FAF82046FFF79A
:10196000B5FC28460122BDE83840042103F0F0B858
:1019700000080240000C0240F7B5144E144F054613
:101980000C4630460022042103F0E2F800224FF416
:101990000051384603F0DCF82846FFF797FC0D4B62
:1019A0000D481B68224601A904F0AFFD384601220C
:1019B0004FF40051019C03F0CBF830460122042182
:1019C00003F0C6F8204603B0F0BD00BF0008024097
:1019D000000C02400C000020AC15002002F048BCB6
:1019E0000268034B9A4201D102F030BC704700BF3D
:1019F000001000407047000082B00E4B00220092A1
:101A0000596C41F480415964596C01F48041009152
:101A100000990192196C41F0805119641B6C03F01C
:101A200080530193019B0F216FF0010002B002F07F
:101A30005BBE00BF003802400268094B9A4282B088
:101A40000BD100230193074B1A6B42F480521A63A7
:101A50001B6B03F480530193019B02B0704700BFDE
:101A6000003002400038024010B514228AB004460B
:101A700000210DEB020012F0A2F82368214A9342E4
:101A80001FD1214B2148002101915A6C42F48072F0
:101A90005A645A6C02F480720192019A02911A6B94
:101AA00042F004021A631B6B03F004030293082143
:101AB000029B0323CDE9051305A902F05FFF0AB0DD
:101AC00010BD134A9342FAD10F4B124800210391E3
:101AD0005A6C42F400725A645A6C02F40072039217
:101AE000039A04911A6B42F001021A631B6B03F014
:101AF00001030493049B20220323CDE9052305A9B8
:101B0000DBE700BF0020014000380240000802402F
:101B1000002101400000024007B50F4B02689A42C5
:101B200016D10022A3F5F0430192196B41F4000194
:101B300019631B6B03F40003019305215A20019BD9
:101B400002F0D2FD5A2003B05DF804EB02F0FEBDB6
:101B500003B05DF804FB00BF00B002402DE9F04384
:101B6000044689B01422002103A812F028F8226844
:101B7000244B9A4243D1244C244800250095236BE2
:101B800043F004032363236B03F004030093009BDF
:101B90000195236B43F001032363236B03F00103DF
:101BA0000193019B4FF012094FF400734FF00108AD
:101BB0000327042603A9CDE90339CDE90587079654
:101BC00002F0DCFE4FF480731148079603A9CDE9BB
:101BD0000339CDE9058702F0D1FE0295236C43F469
:101BE00000032364236C03F400030293029B236A23
:101BF00043F400032362236A23F40003236209B041
:101C0000BDE8F083005C004000380240000802405C
:101C100000000240F0B599B004461422002107A844
:101C200011F0CDFF30220DEB0200002111F0C7FFB3
:101C300022685E4B9A4240F0B78008230C93C02381
:101C40001093042312930CA84FF40033159304F05F
:101C500033F808B1FFF7CEFE554B564800240094E8
:101C60005A6C42F080625A645A6C02F080620092B0
:101C7000009A01941A6B42F020021A631A6B02F068
:101C800020020192019A02941A6B42F001021A6337
:101C90001A6B02F001020292029A03941A6B42F04C
:101CA00002021A631A6B02F002020392039A04946E
:101CB0001A6B42F040021A631A6B02F0400204925F
:101CC000049A05941A6B42F004021A631A6B02F02C
:101CD00004020592059A06941A6B42F008021A63F0
:101CE0001B6B03F00803069302250E26069B0B963A
:101CF0004FF4806307A9CDE90735CDE9094502F026
:101D00003DFE41F658032C480B9607A9CDE907354F
:101D10000927CDE9094502F031FE032327480B9737
:101D200007A9CDE90735CDE9094502F027FE4FF4B3
:101D3000706322480B9607A9CDE90735CDE909451F
:101D400002F01CFE4FF40C631D480B9607A9CDE969
:101D50000735CDE9094502F011FEC02319480B965D
:101D600007A9CDE90735CDE9094502F007FE0823AB
:101D700015480B9607A9CDE90735CDE9094502F0CD
:101D8000FDFD4FF4A0530E480B9707A9CDE9073589
:101D9000CDE9094502F0F2FD58202246052102F066
:101DA000A3FC582002F0D2FC19B0F0BD006801403D
:101DB00000380240001402400000024000040240CB
:101DC0000018024000080240000C024010B5044612
:101DD00088B01422002103A811F0F1FE2268144BF0
:101DE0009A4223D103F56843002101915A6C1148AE
:101DF00042F480125A645A6C02F480120192019AE1
:101E000002911A6B42F020021A631B6B03F020034D
:101E10000293029B4FF4607202230321CDE9032356
:101E20000523CDE9061303A902F0A8FD08B010BDF3
:101E300000500140001402402DE9F04186B000231B
:101E400003932B4B1C68002C4FD14FF00108C3F8B3
:101E50000080284B00949A6B274842EA08029A6354
:101E60009B6B03EA08030093022703260C25009BC3
:101E700001A94FF63F03CDE90137CDE9046502F032
:101E80007DFD1E48059501A9CDE90187CDE90346F1
:101E900002F074FD48F233131948059501A9CDE904
:101EA0000137CDE9034602F069FD4FF6837315480B
:101EB000059501A9CDE90137CDE9034602F05EFDA4
:101EC0004CF203731048059501A9CDE90137CDE91E
:101ED000034602F053FD60230C48059501A9CDE9A6
:101EE0000137CDE9034602F049FD06B0BDE8F081B7
:101EF0004817002000380240001402400008024049
:101F00000018024000100240000C02400004024091
:101F100030B5014689B00022362002F0E5FB3620BC
:101F200002F014FC0025154B02951A6C144C42F07B
:101F300010021A641B6C03F01003029301A903A89A
:101F4000029B03F09BFE03F089FE0E4B236040F2E0
:101F5000E733E36040000C4BB0FBF3F00138606006
:101F600020462561A56004F09FFC20B9204604F0BE
:101F70006BFB09B030BD0120FBE700BF0038024019
:101F80004C1700200010004040420F007047FEE751
:101F9000FEE7FEE7FEE77047014804F093BB00BF91
:101FA0004C170020014803F03BBB00BF0416002083
:101FB000014802F015BC00BF0017002013B50B4C00
:101FC000206804F005FF012809D841238DF8073067
:101FD0002068C82300220DF1070104F098FE0120BB
:101FE00002B0BDE8104002F0C3BD00BFD414002011
:101FF0000120704708B511F085FE162303604FF0ED
:10200000FF3008BD08B511F07DFE16230360FEE722
:1020100070B50D4614460E46731B9C4201DC2046EB
:1020200070BDAFF3008006F8010BF5E770B50D4603
:1020300014460E46731B9C4201DC204670BD16F808
:10204000010BAFF30080F5E74FF0FF3070474FF41E
:1020500000534B60002070470120704700207047FC
:102060000A4A116808B5034609B9094911601068A0
:10207000694603448B4206D911F044FE0C230360E9
:102080004FF0FF3008BD1360FCE700BF941700203D
:1020900058290120704710B50421044611F05AFB5D
:1020A000204610BD08B5032913D8DFE801F0020669
:1020B0000A0E01F075FB006808BD01F071FB406875
:1020C000FAE701F06DFB8068F6E701F069FBC06894
:1020D000F2E70020F0E700000048704728570108A9
:1020E0000B20704713B5002451B1036801948DF89B
:1020F000034001AA9C680DF10303A04702B010BD84
:102100000846FBE7C0897047008A7047C08870475F
:1021100080887047807A00F07F007047807AC0091D
:1021200070470020704700009FED010A704700BF14
:1021300000000000704710B50821044611F00AFBAA
:10214000204610BD7047704700F5987308684968CD
:1021500003C37047704770474160704770477047CE
:10216000064BC0F84C310023C0F8503100F5A27383
:10217000C0F84801C0F84031704700BF8D25000805
:1021800001230372704770477047704710B4C268EC
:1021900041685410034601EB6200D20748BF0A5958
:1021A0009B685DF8044B48BFD35818470346406806
:1021B00030B19A681AB9D86800F001007047012060
:1021C000704710B50C21044611F0C4FA204610BD2A
:1021D00010B51421044611F0BDFA204610BD10B50B
:1021E0001021044611F0B6FA204610BD10B54FF488
:1021F000AE71044611F0AEFA204610BD10B50AF0DB
:1022000083FD0368BDE81040DB6B184710B50AF08A
:102210007BFD0368BDE810405B6B184713B50446AF
:10222000807A637A0130C0B29842A07205D9012346
:1022300023720023A37202B010BDB4F90C20002158
:102240000CF072FBC30707D500284FF6FF73C8BF19
:10225000012313FA80F000B2144AE08112880023AF
:10226000ADF8023083B2D21AADF80020228A208263
:102270009B1AADF804300E4B1B88ADF806300AF0FF
:1022800043FD036802AA1B6C12E906009847A37A73
:10229000012BD0D1074B1B78002BCCD00AF034FD9A
:1022A00002B0BDE810400AF035BD00BFD4250120C2
:1022B000D6250120DE25012010B50446D0F84001C6
:1022C00058B10368DB68984738B1D4F84001036817
:1022D0009B6898470023C4F8403110BD2DE9F14FA9
:1022E000D0E9556A0746B06803681B6A9847B0F59D
:1022F000477F05D2444B454AA321454811F058FA7F
:10230000706803681B6A98470F2803D8414B3F4AFF
:10231000A421F2E7F06803681B6A98470B2803D8EA
:102320003D4B3A4AA521E8E70AF0EEFCDFF8F090D1
:1023300004300AF036FDD9F8000010B10368DB68FC
:102340009847D9F8000010B103681B689847DFF878
:10235000D480D8F8000010B103685B699847D7F8BB
:102360003C0110B103685B689847D8F8000010B1D1
:1023700003681B689847D7F83C0110B103689B6855
:102380009847F068036800215B6A98474FF0000B9C
:10239000224BC0F804B0044680F808B00360B0686F
:1023A000036859465B6A9847054601F059FB706817
:1023B000036859465B6A98472946064601F0C6FA03
:1023C000331DC7F83C61CAF808302B68C6F808A06E
:1023D0002846DB68C9F80040C8F80050EE6398470B
:1023E000336830461B689847214628460CF096FA19
:1023F000236820461B69984723685B69204601B023
:10240000BDE8F04F184700BF584C0108E64C0108E2
:10241000B84D0108FF4D0108A24E01088858010877
:10242000202601201C2601202DE9F14FD0E955BAC4
:102430000746DBF8080003681B6A9847B0F5177F6A
:1024400005D2494B494AA321494811F0B1F9DBF8BB
:10245000040003681B6A98470F2803D8454B434A7A
:10246000A421F1E7DBF80C0003681B6A98471328E6
:1024700003D8414B3D4AA521E6E70AF045FCDFF8C9
:10248000049104300AF08DFCD9F8000010B1036803
:10249000DB689847D9F8000010B103681B689847BB
:1024A000DFF8E480D8F8000010B103685B69984752
:1024B000D7F83C0110B103685B689847D8F8000072
:1024C00010B103681B689847D7F83C0110B1036846
:1024D0009B689847DBF80C00036800215B6A98470B
:1024E000264B03604FF4A0530381254B00268672D0
:1024F0001B8846600446C68106828381DBF808009B
:10250000036831465B6A9847054601F0D9F9DBF864
:102510000400036831465B6A98472946064601F085
:1025200095F9331DC7F83C61CAF808302B68C6F826
:1025300008A02846DB68C9F80040C8F80050EE63E0
:102540009847336830461B689847214628460CF068
:10255000E5F9236820461B69984723685B69204694
:1025600001B0BDE8F04F1847584C0108454F01082D
:10257000B84D0108FF4D0108A24E0108AC580108F2
:10258000D4250120202601201C2601202DE9F14F11
:10259000D0E9556A0746B06803681B6A9847B0F5EA
:1025A000177F05D2444B454AA321454811F000F955
:1025B000706803681B6A98470F2803D8414B3F4A4D
:1025C000A421F2E7F06803681B6A98470B2803D838
:1025D0003D4B3A4AA521E8E70AF096FBDFF8F09078
:1025E00004300AF0DEFBD9F8000010B10368DB68A4
:1025F0009847D9F8000010B103681B689847DFF8C6
:10260000D480D8F8000010B103685B699847D7F808
:102610003C0110B103685B689847D8F8000010B11E
:1026200003681B689847D7F83C0110B103689B68A2
:102630009847F068036800215B6A98474FF0000BE9
:10264000224BC0F804B0044680F808B00360B068BC
:10265000036859465B6A9847054601F031F970688E
:10266000036859465B6A98472946064601F0EEF82A
:10267000331DC7F83C61CAF808302B68C6F808A0BB
:102680002846DB68C9F80040C8F80050EE63984758
:10269000336830461B689847214628460CF03EF9BF
:1026A000236820461B69984723685B69204601B070
:1026B000BDE8F04F184700BF584C010829500108E9
:1026C000B84D0108FF4D0108A24E010888580108C5
:1026D000202601201C260120F8B5044617460E4688
:1026E0000AF0FCFB104B0025C4E955760F4E1C6028
:1026F000C4E953550E4B306823600E4BC4E9513585
:10270000036801219B68C4E94F559847284600F0AB
:10271000FBFF336893F858200AB1D86C00B9986869
:1027200010F0CCFA2046F8BD2C260120E02501202F
:10273000345801081C580108064BC0F84C310023DE
:10274000C0F8503100F5A273C0F84801C0F840311C
:10275000704700BF8D250008064BC0F84C310023A0
:10276000C0F8503100F5A273C0F84801C0F84031FC
:10277000704700BF29240008064BC0F84C310023E5
:10278000C0F8503100F5A273C0F84801C0F84031DC
:10279000704700BFDD220008406A7047806A7047BA
:1027A00070478A880B8810B5D20A4C88C1699BB2E1
:1027B00051F8220043EA0443184410BD10B5044602
:1027C000BAB1107B68B1537BD27A1B0203F4E06389
:1027D0001A43236A03EB82031A888A4202D193F9CF
:1027E000020010BD05D8013880B204330028F3D1AF
:1027F000F7E70020F5E710B52C21044610F0AAFFFA
:10280000204610BD30B58BB00446BDF86050089529
:10281000BDF85C5007959DF8505006959DF84C50BA
:1028200005959DF8485004959DF8445003959DF8F2
:10283000405002959DF83C500195BDF838500095E8
:102840000BF0C6FC064B2360159BE361169B2362CD
:10285000199B63621A9BA36220460BB030BD00BF78
:10286000D05801080020704781807047C1807047B0
:1028700001817047418170477047704770477047CA
:10288000704710B4C4880368121B84885B6D091BF1
:1028900012B25DF8044B09B218474FF6FF738381FB
:1028A0004FF0FF3303621368C361106070477047D5
:1028B000704770477047704730B5036885B06D4604
:1028C0000181D3F88430014604462846984795E8AC
:1028D00007003C3484E8070005B030BD30B503681C
:1028E00085B06D464181D3F88430014604462846C0
:1028F000984795E807003C3484E8070005B030BDF0
:102900000022028042808280C280704780F83610A8
:10291000704770B5036804461B6B154698472368DB
:10292000294620465B6EBDE870401847002070477E
:10293000806C7047704770477047704730B4C2680A
:1029400044685510034604EB6200D20748BF625941
:102950009B6830BC48BFD35818470346406830B125
:102960009A681AB9D86800F00100704701207047D2
:1029700010B54C21044610F0EDFE204610BD10B5F8
:102980001021044610F0E6FE204610BD10B54FF4AD
:102990001671044610F0DEFE204610BD90F825208A
:1029A00012B103685B691847704708B5FFF7F6FF77
:1029B00008BD90F825201AB190F8242002B11860C3
:1029C00070470000036870B55E6B124B1B680446CD
:1029D0008DB22BB9104B114A6C21114810F0E8FE52
:1029E0001049828D0988914203D80F4B0B4A6D2103
:1029F000F3E713F812200D4B1B6853F8220003680D
:102A00001B6B9847291A3346204609B2BDE870402F
:102A1000184700BF30260120FB5001083D51010836
:102A20007851010834260120BF51010838260120C1
:102A300000F59670884208B505D10AF065F9BDE841
:102A40000840FFF799BE08BD00224FF0FF31C0E9F2
:102A500000218260704770B5036804461B6B154601
:102A600098472368294620465B6BBDE870401847AD
:102A70000022C0E90122C0E90322C0E90522C0E921
:102A800007224FF480728284014A0260704700BFBF
:102A90003859010838B5262204460D46002111F0A8
:102AA0008EF82046FFF7E4FF064B23602B88E38473
:102AB000FF23204684F82830294607F0C8FF204627
:102AC00038BD00BF145F010810B52622044600215E
:102AD00011F075F82046FFF7CBFF0A4B23600A4B35
:102AE000A3624FF6FF73A3854FF47F020023C4E96E
:102AF0000C3223874FF0FF32C4E91023E3632046F2
:102B000010BD00BFA85D01080C5801082DE9F04F69
:102B100004468DB0274600250BF054FDC14BE563FC
:102B200047F8403B26222946384611F048F83846F7
:102B3000FFF79EFFBC4B236404F16C0AFF234FF6A2
:102B4000FF7604F1980984F866300AA95046A56614
:102B500004F1E008ADF82860FFF79CFF4846FFF756
:102B6000B3FF4046FFF7B0FFB04BC4F8E03004F5C8
:102B70009673262229461846C4F82851009311F06E
:102B80001EF80098FFF774FF4FF00103A84A84F87D
:102B9000503104F5B073C4F82C210AA9A4F85A6185
:102BA000A4F85C6184F85E611846C4F8545184F856
:102BB00058510293ADF82860FFF76CFF04F5C67317
:102BC000184604F5EA7B0193FFF77EFF5846FFF7AE
:102BD0007BFF964BC4F8D431964BC4F81C52C4E921
:102BE0009234954B2A46C4E9943538462946FFF776
:102BF00032FF3846F021FFF73BFE38464FF4A07114
:102C0000FFF738FE261D4FF07F43A3663946304656
:102C100006F03CF8712250461C21FFF71CFF50467D
:102C20000AA9ADF8285007F012FF5146304606F0C9
:102C30002DF87D2248462221FFF70DFF04AF7F4B80
:102C4000C4F8C83049463846A4F8CC5007F0C0FA5A
:102C500097E8070004F1D40383E80700DFF800A237
:102C6000CDF828A048460AA9ADF82C5007F058FD29
:102C70004946304606F00AF87D2266214046FFF7B5
:102C8000EAFE6F4BC4F81031D4F8E030A4F81451C8
:102C9000D3F88430DFF8CC9141463846984797E81E
:102CA000070004F58E7383E8070004F508730393A7
:102CB000D9F800302BB9634B634A6021634810F0A8
:102CC00077FD634B1B88012B03D8624B5E4A612161
:102CD000F4E7614B0121186800F052FD0A21034618
:102CE0005E4A03980DF0A8FD039AC4F828214046D7
:102CF00007F0F6FC022340460AA9ADF82C30CDF8C7
:102D000028A007F00DFD4146304605F0BFFF0098B2
:102D1000AB221421FFF79FFE4FF005080AAA009886
:102D2000ADF8248009A9ADF8288007F057FD04F517
:102D30001273C4F854310099304605F0A7FF3022D1
:102D400002981C21FFF787FE0298ADF828500AA9C7
:102D500007F07DFE0299304605F098FF01983C226D
:102D60002221FFF778FE354A0199C4F8BC21A4F866
:102D7000C051384607F02CFA97E8070004F5E473D1
:102D800083E8070003230198ADF82C300AA9CDF899
:102D900028A007F0C5FC0199304605F077FF3C22DA
:102DA00084215846FFF757FED4F8D431244AD3F88B
:102DB0008430C4F80422A4F808525946384698478B
:102DC00097E8070004F5047383E80700D9F800309A
:102DD00004F50D75002B3FF46EAF1D4A1388042BCC
:102DE0007FF673AF1C4B0421186800F0C9FC1B4A26
:102DF00003460A2128460DF01FFD5846C4F81C5210
:102E000007F06EFC0AA95846CDF828A0ADF82C8032
:102E100007F086FC3046594605F038FF20460DB0D5
:102E2000BDE8F08F485A0108385E0108A059010832
:102E3000A05E0108305A0108312A00081313EBFF85
:102E40002525E6FFFB500108FD51010878510108D6
:102E500034260120BF5101083C26012048520108B8
:102E60000C58010830260120806A7047704770476F
:102E700070477047704730B4C268446855100346C5
:102E800004EB6200D20748BF62599B6830BC48BF60
:102E9000D35818470346406830B19A681AB9D868C1
:102EA00000F0010070470120704790F82D3080F845
:102EB000603070470146383091F82C3013B136310C
:102EC00007F0C5BD3431FBE710B56421044610F0AE
:102ED00041FC204610BD10B51021044610F03AFC0C
:102EE000204610BD10B54FF43E71044610F032FC80
:102EF000204610BD10B50446006B50B10368DB6876
:102F0000984730B1206B036821469B68BDE81040AC
:102F1000184710BD0B7970B590F82C6004460D462B
:102F20000BB916B170BD002EFCD0B3FA83F35B0968
:102F300084F82C3023682046D3F88C3098472368D7
:102F400020465B699847002EECD02B79012BE9D104
:102F500023682046D3F88830BDE87040184700F554
:102F6000BA738B4210B5044609D109F0CDFEFFF7C4
:102F7000F3FB23682046DB6ABDE81040184710BD0C
:102F80000B882DE9F04183861388B0F90850C38679
:102F90000446104690460DF009FDB4F90A30074684
:102FA00003EBD3734046C3F34F060DF033FD05EB3F
:102FB000D575C5F34F0500EBD07007EBD777A6EBBF
:102FC0006002A5EB670104F1380012B209B2FFF705
:102FD00042FD23682046D3F88C30BDE8F041184705
:102FE00070B504461D46BDF91060FFF734FD236837
:102FF000294620469B6B9847236831462046DB6B69
:10300000BDE87040184700002DE9F04F044693B02A
:10301000A04600250BF0D6FACA4BE56348F8403BC2
:1030200026222946404610F0CAFD4046FFF720FD03
:10303000C54B236404F16C0BFF234FF6FF7604F1BC
:10304000980A84F8663010A9A566584604F1C409A8
:10305000ADF84060FFF71EFD10A95046ADF8406086
:10306000FFF718FD10A94846ADF84060FFF712FDC4
:1030700004F1F00310A918460293ADF84060FFF781
:1030800009FD04F58E7310A918460393ADF840604E
:10309000FFF700FD04F5A47310A918460493ADF8DA
:1030A0004060FFF7F7FC04F5BA7305934FF47F43D4
:1030B000A4F8A03140F20113A4F89831A34BC4F84E
:1030C000743104F5D6774FF0FF33C4F8A83110A956
:1030D0003846C4E95E55C4E96055C4E96255C4E99F
:1030E0006455C4F89C51C4F8A451ADF84030FFF7C2
:1030F000D1FC3946059805F0C9FD04F5EC73184676
:1031000004F5017710A90693ADF84060FFF7C2FC03
:1031100026222946384610F052FD3846FFF7A8FC13
:103120008B4BC4F82C324FF47F024FF0FF33C4E9CD
:103130009135C4F8382204F51473864AC4F8042281
:10314000A4F8306210A91846C4F83452A4F83C52CE
:10315000C4F84052C4F84C520793ADF84060FFF7F2
:1031600099FC04F51F7310A918460893ADF8406048
:10317000FFF790FC04F52A7310A918460993ADF8DF
:103180004060FFF787FC744BC4E9BA34734BC4E961
:10319000BC354FF4A0732A46404600932946F023DD
:1031A000261DFFF71DFF4FF07F43A36641463046C3
:1031B00005F06CFD2A4629465846FFF74CFC4FF0B7
:1031C0000A0310A95846ADF8403007F040FC5946B4
:1031D000304684F8915005F059FD2A46504629465C
:1031E000FFF739FC0923504610A9ADF8403007F02D
:1031F0002EFC5146304684F8BD5005F047FD2A4666
:1032000048462946FFF727FC0823484610A9ADF891
:10321000403007F01CFC4946304684F8E95005F080
:1032200035FD2A4602982946FFF715FC4FF007089E
:103230000298ADF8408010A907F009FC029984F8C3
:103240001551304605F022FD2A4603982946FFF71E
:1032500002FC4FF006090398ADF8409010A907F062
:10326000F6FB039984F84151304605F00FFDA0228A
:1032700004985F21FFF7EFFB04230498ADF840307A
:1032800010A907F0E4FB0499304605F0FFFC012388
:103290000598ADF83C3010AA0FA9ADF84030FFF703
:1032A0006FFE04F53A73C4F8A43120234FF48D72F5
:1032B0000598C4F8B051CC210093FFF791FE059911
:1032C000304605F0E3FC382206983F21FFF7C3FBA8
:1032D00003230698ADF8403010A907F0B8FB069913
:1032E000304605F0D3FC14232A460093AD21432336
:1032F0003846FFF775FE1A4BC4F83432D4F804325E
:10330000A4F838520DF1280A5046D3F884303946D3
:1033100098479AE8070004F5107383E80700114BFB
:103320001B6804F5357A2BB90F4B104A6021104801
:1033300010F03EFA0F4B1B88062B1FD80E4B0B4A82
:103340006121F4E7345B0108385E01087C5A01080A
:103350000C580108A05901081C5B01085F2F0008E8
:103360000A0AF5FF30260120FB500108FD51010833
:103370007851010834260120BF510108254B4946E8
:10338000186800F0FDF9244A03460A2150460DF062
:1033900053FA224BC4F84CA210A938461093ADF84A
:1033A000448007F0BDF93946304605F06FFC2A46E7
:1033B00007982946FFF74FFB02270798ADF84070A2
:1033C00010A907F044FB0799304605F05FFC2A4638
:1033D00008981221FFF73FFB0898ADF8407010A93C
:1033E00007F035FB0899304605F050FC2A4609984D
:1033F0002421FFF730FB0998ADF8407010A907F0C1
:1034000026FB3046099905F041FC204613B0BDE883
:10341000F08F00BF3C260120485201080C580108DB
:103420007047000030B5164D2C6814F001048FB0C1
:10343000BFF35B8F20D1284610F08EF9E0B13F2317
:103440000993104B0893104B104911480A9401221C
:10345000CDE906430423CDE903320A230093CDE9E5
:103460000B44CDE901440594FFF7CCF9094810F06D
:10347000BDF9284610F07CF905480FB030BD00BFFB
:1034800098170020F0B40108A0B6010868AA010846
:103490009C170020213400087047000030B5174DFC
:1034A0002C6814F001048FB0BFF35B8F22D1284643
:1034B00010F052F9F0B13F230993114B0893114BCF
:1034C00007930123CDE9053304930423CDE9024397
:1034D00014230D4900935F221823CDE90B440B48B8
:1034E0000A940194FFF78EF9094810F07FF92846F5
:1034F00010F03EF905480FB030BD00BFC8170020DE
:10350000F4B40108A4B6010878AA0108CC17002079
:10351000993400087047000030B5164D2C6814F03F
:1035200001048FB0BFF35B8F20D1284610F014F94F
:10353000E0B13F230993104B0893104B10491148F9
:103540000A940122CDE906430423CDE9033228235E
:103550000093CDE90B44CDE901440594FFF752F9FE
:10356000094810F043F9284610F002F905480FB059
:1035700030BD00BFF817002098B60108A8B60108B2
:10358000ACAF0108FC17002015350008704700009B
:1035900030B5174D2C6814F001048FB0BFF35B8F6A
:1035A00023D1284610F0D8F8F8B13F230993114BE6
:1035B0000893114B07930323CDE90533012204231C
:1035C000CDE9033216230D4900935F221B23CDE979
:1035D0000B44CDE901440A480A94FFF713F909485E
:1035E00010F004F9284610F0C3F805480FB030BDBC
:1035F000281800209CB60108ACB60108BCAF010831
:103600002C1800208D3500080020704700207047DE
:103610000EB403B503AB002153F8042B01930AF059
:1036200023FC02B05DF804EB03B070470CB407B59F
:1036300004AB53F8042B01930AF016FC03B05DF8B9
:1036400004EB02B07047000010B504460BF024FAFA
:10365000E38E04EB43035884636C5BB3238F2BB975
:10366000174B184AC521184810F0A2F810B320468D
:103670000CF039FB238F012B03D8144B144ACB21B8
:10368000F1E7E28E531C9BB2092B194688BFA3F1C8
:103690000A0104EB410140F63F10498C814209D1F7
:1036A0000A2B04EB420228BF002304EB4303508C97
:1036B000588451842046BDE810400CF017BA00BF72
:1036C0004B52010854520108FF52010849530108A6
:1036D0005753010810B504460CF0CFF92046BDE859
:1036E00010400BF0D5B910B586B002AC84E80600E6
:1036F0001A460AAB05930193099B00932146089B48
:1037000008F088FE06B010BD38B518BB124B134840
:103710001C681349B4B122682244026062682244E2
:103720000A60A26814440F4B00221A8000F038F897
:10373000054600F033F80C4B1C600C4B1D600C4B25
:10374000188007E00B4B03600B4B0B600B4B1C68A6
:10375000002CE8D138BD00BF641800205C180020A0
:10376000581800206018002030260120382601203B
:1037700034260120D0B60108B0B60108FCB6010815
:10378000044B1B6853F82100034B1B6803EB4000FC
:10379000704700BF581800205C18002008207047B0
:1037A000004870476818002010B5FFF777FE064CF8
:1037B0002060FFF7B1FE6060FFF734FEA060FFF706
:1037C000E7FEE06010BD00BF68180020704710B52C
:1037D0004FF4AE7104460FF0BDFF204610BD10B58A
:1037E0000446D0F8580100F017F82046BDE8104014
:1037F00009F034BB10B50446FEF76EFF014B2360A1
:10380000204610BD6C5B010802490022C0E900217E
:10381000826070475F00A000036801330360704757
:1038200081807047B0F904007047B0F90600704716
:10383000704704387047704710B5102104460FF0E8
:1038400089FF204610BDA0F10400F5E70022826048
:10385000024A026018324260C1607047C05B0108D2
:1038600070470000D0F85832084A013310B5C0F84C
:10387000583203681188DB6A044698472368044A73
:103880001B6B11882046BDE810401847E214002049
:10389000E014002010B5034B03600446FFF74CF81A
:1038A000204610BDE85B010810B50446FFF7F2FFA3
:1038B00020464FF417710FF04DFF204610BD000059
:1038C00010B50446FFF722F9034B23600023C4F828
:1038D0005832204610BD00BFE85B0108FFF72DB845
:1038E00038B5044600F50D750B462846054A0A21F1
:1038F0000CF0A2FFC4F81C5204F5EA70BDE8384091
:103900000AF0B9BB2954010838B5044600F508751A
:103910000B462846054A0A210CF08EFFC4F82851B0
:1039200004F1E000BDE838400AF0A5BB29540108C5
:10393000704704387047704710B5102104460FF0E7
:1039400009FF204610BDA0F10400F5E700228260C7
:10395000024A026018324260C1607047245C01086C
:103960008068FFF75DBF8068FFF75CBF8068FFF786
:103970005CBFB2F90400B2F9083010B5B1F90440E7
:1039800003449C4215DAB1F908302344984210DA16
:10399000B2F90600B2F90A30B1F9064003449C427C
:1039A00007DAB1F90A3023449842ACBF0020012065
:1039B00010BD0020FCE70000D0F810331422B3FB48
:1039C000F2F3174A9BB270B51380164A11889942D8
:1039D00038BF138000254FF440730446A0F8183315
:1039E000C0E9C455C06BFFF7BEFFA4F80C03E06B41
:1039F000FFF7BCFFB4F80C33A4F84C310F23C4F824
:103A0000DC312368A4F80E03A4F84E011B6B20469A
:103A100029469847236820465B6BBDE870401847ED
:103A2000E2140020E0140020B0F90C13C06BFFF783
:103A300097BF000010B5034B03600446FFF719FA67
:103A4000204610BD4C5C010810B50446FFF7F2FF9C
:103A500020464FF447710FF07DFE204610BD000058
:103A600010B50446FFF7D0FA054B23600023C4E9E4
:103A7000C4334FF44073A4F81833204610BD00BF80
:103A80004C5C010810B50446C06BFFF76CFFA4F84E
:103A90000C03E06BFFF76AFFA4F80E032046FFF764
:103AA000E9F9D4F80C33C4F84C310F23C4F8DC31F5
:103AB000054A236811881B6B2046984723682046D7
:103AC0005B6BBDE810401847E21400207FB5D0F8CA
:103AD000106305230136B6FBF3F303EB8303F31AFC
:103AE000013B0446C0F8106301210022032B03D8D8
:103AF000DFE803F0676C717684F8411184F8912057
:103B0000B4F9DE314FF4FA75B6FBF5F501351D4415
:103B1000454B0FCB0DF1100CB5F5A07F0CE90F0054
:103B200063DD0023A4F8DE31B4F90C33B4F90E23BD
:103B30003344134403F003030CEB830353F8103CAA
:103B4000A4F8DC31394B1B88962B51D9B4F90C33CE
:103B5000591D05DB033B1BB2A4F80C33A4F84C3110
:103B600094F818532368B5B9DB6B04F5EC7204F5CF
:103B7000A47120469847002842D094F81933013B9D
:103B800084F81933236820465B6B9847012384F837
:103B90001833C4F81453D4F814330133DA07C4F8D3
:103BA000143305D494F86D2182F0010284F86D215C
:103BB0003B2B81BF002384F81833012384F86D3137
:103BC00022E084F8151184F8412199E784F8E9107E
:103BD00084F8152194E784F8BD1084F8E9208FE774
:103BE00084F8911084F8BD208AE7A4F8DE51A9E793
:103BF000592BB5D8B4F90C33C42BB1DC0333AAE785
:103C000094F81833002BC6D12368D4F810131B6B1B
:103C100014222046B1FBF2F19847201D04B0BDE804
:103C200070400AF028BA00BF04480108E6140020DA
:103C300038B5044600F53E750B462846054A0A216C
:103C40000CF0FAFDC4F84C5204F50170BDE83840A0
:103C50000AF011BA2954010810B590F81933044636
:103C6000032B0AD8DFE803F002171E2703689B6BBB
:103C7000984709F049F8FEF75FFD04F514700AF063
:103C8000FAF904F51F700AF0F6F904F52A70BDE898
:103C900010400AF0F0B9012380F87532002384F84F
:103CA000A13205E0012380F8753280F8A1320023AB
:103CB00084F8CD32E1E7012380F87532EFE7F02098
:103CC00070474FF4A07070472920FDF739BE2820B7
:103CD000FDF736BE08B5FDF707FECA20FDF730FE3A
:103CE000C320FDF711FE0820FDF70EFE5020FDF762
:103CF0000BFECF20FDF724FE0020FDF705FEC120BE
:103D0000FDF702FE3020FDF7FFFDED20FDF718FE68
:103D10006420FDF7F9FD0320FDF7F6FD1220FDF705
:103D2000F3FD8120FDF7F0FDE820FDF709FE852079
:103D3000FDF7EAFD0020FDF7E7FD7820FDF7E4FD43
:103D4000CB20FDF7FDFD3920FDF7DEFD2C20FDF732
:103D5000DBFD0020FDF7D8FD3420FDF7D5FD022066
:103D6000FDF7D2FDF720FDF7EBFD2020FDF7CCFDA0
:103D7000EA20FDF7E5FD0020FDF7C6FD0020FDF778
:103D8000C3FDB120FDF7DCFD0020FDF7BDFD1B20CC
:103D9000FDF7BAFDB620FDF7D3FD0A20FDF7B4FD0F
:103DA000A220FDF7B1FDC020FDF7CAFD1020FDF7F0
:103DB000ABFDC120FDF7C4FD1020FDF7A5FDC5201A
:103DC000FDF7BEFD4520FDF79FFD1520FDF79CFD8D
:103DD000C720FDF7B5FD9020FDF796FD3620FDF7D5
:103DE000AFFDC820FDF790FDF220FDF7A9FD0020F2
:103DF000FDF78AFDB020FDF7A3FDC220FDF784FD8D
:103E0000B620FDF79DFD0A20FDF77EFDA720FDF7FA
:103E10007BFD2720FDF778FD0420FDF775FD2A20A6
:103E2000FDF78EFD0020FDF76FFD0020FDF76CFD16
:103E30000020FDF769FDEF20FDF766FD2B20FDF763
:103E40007FFD0020FDF760FD0020FDF75DFD0120F6
:103E5000FDF75AFD3F20FDF757FDF620FDF770FDF9
:103E60000120FDF751FD0020FDF74EFD0620FDF776
:103E70004BFD2C20FDF764FDC820FDF7AFFD26208B
:103E8000FDF75EFD0120FDF73FFDE020FDF758FD49
:103E90000F20FDF739FD2920FDF736FD2420FDF721
:103EA00033FD0C20FDF730FD0E20FDF72DFD092020
:103EB000FDF72AFD4E20FDF727FD7820FDF724FDB4
:103EC0003C20FDF721FD0920FDF71EFD1320FDF725
:103ED0001BFD0520FDF718FD1720FDF715FD11202E
:103EE000FDF712FD0020FDF70FFDE120FDF728FD95
:103EF0000020FDF709FD1620FDF706FD1B20FDF74C
:103F000003FD0420FDF700FD1120FDF7FDFC072057
:103F1000FDF7FAFC3120FDF7F7FC3320FDF7F4FC48
:103F20004220FDF7F1FC0520FDF7EEFC0C20FDF72B
:103F3000EBFC0A20FDF7E8FC2820FDF7E5FC2F202C
:103F4000FDF7E2FC0F20FDF7DFFC1120FDF7F8FC88
:103F5000C820FDF743FD2920FDF7F2FCBDE808402D
:103F60002C20FDF7EDBC08B5FDF7BEFC0321D320E6
:103F7000FDF702FD80B208BD10B5C4B202220321D4
:103F80002046FDF767FC0A20FDF7ACFC2046002226
:103F90000321FDF75FFCBDE810400220FDF7A2BC45
:103FA00038B50446E4B2FDF753FC00212046FDF786
:103FB00069FC012105462046FDF764FC40EA052026
:103FC00080B238BD10B5C4B240212046FDF75AFC7E
:103FD000030607D54C212046FDF754FC003818BFD6
:103FE000012010BD01224B212046FDF733FC204665
:103FF00000224B21FDF72EFC0020F2E773B50423CD
:10400000C4B20E461546D7210DEB03022046FDF73C
:1040100053FC019B1BBA1A0DC3F30B2332802046BD
:104020002B8001224B21FDF715FC00224B2120465D
:10403000FDF710FC02B070BD10B50A4A1378984223
:1040400004460DD0517888420AD00BB141B9012302
:10405000D454FDF7FDFB2046BDE81040FFF78CBFB0
:1040600010BD00BF7818002010B5C4B20921204649
:10407000FDF708FC40F00102D2B220460921BDE85C
:104080001040FDF7E7BB10B5C4B209212046FDF78B
:10409000F9FB092100F0FE022046BDE81040FDF7C3
:1040A000D9BB38B5C4B20D4620460A21FDF7EAFB5C
:1040B00040EA0502D2B220460A21BDE83840FDF7A9
:1040C000C9BB10B50446FDF7C4FB20461F21FFF70E
:1040D000E8FF2046BDE81040FFF7C6BF38B5C4B2C0
:1040E0000D4620460A21FDF7CDFB20EA0502D2B29B
:1040F00020460A21BDE83840FDF7ACBB10B50446A8
:10410000FFF7C1FF20461F21BDE81040FFF7E6BFC3
:1041100010B5C0B20C460B21FDF7B4FB204010BD1A
:104120001F21FFF7F5BF0A46C0B20B21FDF792BB76
:104130001F21FFF7F8BF38B5C4B20D46204617213E
:10414000FDF7A0FB20EA0502D2B220461721BDE808
:104150003840FDF77FBB70B5C4B206460421204647
:10416000FDF790FB042100F0FB0205462046FDF719
:1041700071FB3046F021FFF7DEFF05F0F802204624
:104180000421FDF767FB492220212046FDF762FB51
:104190000220FDF7A7FB204601222121FDF75AFB53
:1041A00020469A224121FDF755FB204601224A2153
:1041B000FDF750FB204601224B21FDF74BFB20462B
:1041C00000224B21FDF746FB204601225621FDF738
:1041D00041FB204601225821FDF73CFB20460122ED
:1041E0004021FDF737FB2046FF220B21FDF732FB74
:1041F000BDE870400220FDF775BB0000054BD3F809
:10420000882042F47002C3F888204FF000629A6060
:10421000704700BF00ED00E008B50B4B1A6842F490
:1042200000721A601A6842F480621A601A6842F4D6
:1042300080721A60032000F045FA0020FDF768FE46
:10424000FDF7DAFB002008BD003C0240034A044BA6
:1042500011681B780B441360704700BF7C18002066
:1042600078000020014B1868704700BF7C180020C0
:1042700038B50446FFF7F6FF631C1CBF054B1B78DF
:10428000054618BFE418FFF7EDFF431BA342FAD31E
:1042900038BD00BF7800002038B50446002800F083
:1042A0009B80056C25B9FDF7DFFB656484F83C5005
:1042B000236CDB0600F18E80236C23F4885323F0FB
:1042C000020343F002032364444B5A6822F4403251
:1042D0005A605A6861680A435A60236821695A68BB
:1042E00022F480725A605A6842EA01225A605A687F
:1042F000A16822F040725A605A680A435A609A686C
:10430000E16822F400629A609A680A439A6034492C
:10431000A26A8A4252D0996821F0706199609968C6
:104320000A439A609A68E16A22F040529A609A6859
:104330000A439A609A6822F002029A609A68217E83
:1043400042EA41029A6094F82020002A3ED05A683E
:10435000616A42F400625A605A6822F460425A600C
:104360005A68013942EA41325A60DA6AE16922F454
:104370007002DA62DA6A013942EA0152DA629A6854
:1043800022F400729A609A6894F8301042EA41224E
:104390009A609A68616922F480629A609A68002043
:1043A00042EA81229A606064236C23F0030343F0A5
:1043B00001032364002384F83C3038BD9A6822F05E
:1043C00070629A609A6822F04052B2E75A6822F40A
:1043D0000062C9E70120EDE70120EEE7002301407C
:1043E0000100000F82B00023019390F83C30012BB4
:1043F00069D0012380F83C3003689A68D2070BD556
:104400009A68D1071AD4036C43F010030364436C19
:1044100043F0010343644CE09A682C4942F00102E6
:104420009A602B4A1268B2FBF1F202EB420201924F
:10443000019A002AE4D0019A013AF8E7026C22F4CA
:10444000E06222F0010242F4807202645A6852056E
:1044500041BF026C22F4405242F480520264026C6A
:1044600012F480521CBF426C22F006024264002209
:1044700080F83C206FF022021A60164A516811F051
:104480001F0F15491CD18B4207D001F580718B425B
:104490000CD1526812F01F0F0BD19A6812F0405FD6
:1044A00007D19A6842F080429A6002E00B498B4241
:1044B00002D0002002B07047526812F0100FEBE7F4
:1044C0008B42F6D1E9E70220F4E700BF40420F003B
:1044D0007400002000230140002001400022014020
:1044E00003689A68520570B504460D460BD59B6863
:1044F000DE0508D5036C43F020030364002380F835
:104500003C30012070BDFFF7ADFE064623681A68F7
:1045100091070CD56FF012021A60226C42F40072FF
:1045200022649A6812F0405F17D00020EAE7681C06
:10453000EDD065B923681B6813F00203E6D1226C45
:1045400084F83C3042F0040222640320DAE7FFF7EB
:1045500089FE801BA842EDD8D8E7227E002AE4D14C
:10456000DA6A12F4700F02D09B685A05DDD4236C0E
:1045700023F480732364236CDB04D6D4236C43F0D0
:1045800001032364D1E70368D86C7047F7B50023B3
:10459000019390F83C30012B054600F08680012302
:1045A00080F83C3008682B688E68092884B233D9BB
:1045B00004EB4402DF681E3A4FF0070C0CFA02FCD1
:1045C00027EA0C07DF60DF6806FA02F23A43DA6096
:1045D0004968062901EB81022DD8596B053A1F263F
:1045E000964021EA06015963596B04FA02F20A4324
:1045F0005A632F4A93420AD1122837D12D4B5A6859
:1046000022F400025A605A6842F480025A60002084
:1046100085F83C0003B0F0BD1A6900EB400C072799
:1046200007FA0CF722EA07021A611A6906FA0CF671
:1046300016431E61CCE70C294FF01F010BD81E6BEF
:10464000233A914026EA01011963196B04FA02F238
:104650000A431A63CDE7DE6A413A914026EA010136
:10466000D962D96A94400C43DC62C2E7124B98428B
:1046700001D01128CBD10F4B5A6822F480025A6026
:104680005A6842F400025A600B4B9842BFD10B4B60
:104690000B4A1B68B3FBF2F30A2253430193019BBD
:1046A000002BB4D0019B013BF8E70220B2E700BF2A
:1046B000002001400023014012000010740000207F
:1046C00040420F000749CA6822F4E0620302120464
:1046D00003F4E063120C134343F0BF6343F400336D
:1046E000CB60704700ED00E0164B30B5DC68C4F3DA
:1046F0000224C4F10703251D042B28BF0423062D23
:104700004FF0FF358CBF033C002405FA03F321EA88
:104710000303A54022EA0502A340002843EA02035E
:10472000ACBF00F16040084A4FEA0313B8BF00F085
:104730000F00DBB2AABF00F56140135480F80033CC
:1047400030BD00BF00ED00E014ED00E0002807DB05
:104750004109044A00F01F000123834042F8213040
:10476000704700BF00E100E010B5044650B1437946
:1047700003F0FF0213B90271FDF75EF901236371C3
:10478000002010BD0120FCE710B5044620B390F8CE
:10479000393003F0FF021BB980F83820FDF7BCF96F
:1047A000022384F83930236861681A6822F44032A1
:1047B0000A431A605A6BA16822F007020A435A633F
:1047C0001A6CE1686FF30D020A431A64002001239A
:1047D000E06384F8393010BD0120FCE77047704772
:1047E000036870B55E681D68F207044614D5E905D4
:1047F00012D51A6822F480721A60C26B42F001026C
:10480000C26301229A60042380F83930002380F8C3
:104810003830436903B19847B20616D5AB0414D5B6
:1048200023681A6822F400521A6020229A60E36B0F
:1048300043F00203E363042384F83930002384F84F
:10484000383063690BB120469847300716D52905E3
:1048500014D523681A6822F400621A6008229A604C
:10486000E36B43F00403E363042384F8393000234B
:1048700084F8383063690BB12046984772070BD52E
:104880006B0509D523681A6822F480621A60042235
:104890009A602046FFF7A2FFB00714D5A90512D5EC
:1048A00023681A6822F400721A6002229A60E36B8D
:1048B000E363012384F83930002384F83830236916
:1048C0000BB120469847F20613D5EB0411D52368A7
:1048D0001A6822F480521A6010229A60E36BE36334
:1048E000012384F83930002384F838302046FFF75C
:1048F00076FF70BDF0B590F83820012A03464FF0DE
:1049000002002BD0012283F8382083F8390003EB12
:104910000112D2E90740556A174F44EA0040093CAA
:10492000012C9CBF05F07F4210434FEA01161A6824
:1049300088BF40EA056091B9516A3940014351622C
:10494000012C9969916103D8596A21F07F419162E4
:104950000122002083F8392083F83800F0BDD169A6
:1049600039400143D1619919012C896911619CBFBA
:1049700025F07F451562EBE7F0FFFC002DE9F74FCE
:10498000DFF8BC916C4A00230D6801249C4004EAC6
:104990000506AC4340F0B7804D68032705F00304DB
:1049A0004FEA430807FA08FC671E012F6FEA0C0C58
:1049B00034D8876807EA0C0ECF6807FA08F747EA89
:1049C0000E078760476827EA060EC5F300179F4069
:1049D00047EA0E074760C76807EA0C0E8F6807FAB8
:1049E00008F747EA0E07022CC76019D14FEAD30A2D
:1049F00000EB8A0A03F0070BDAF820704FEA8B0B02
:104A00004FF00F0E0EFA0BFE27EA0E0E0F6907FA93
:104A10000BF747EA0E07CAF8207001E0032CDAD141
:104A2000076804FA08F407EA0C073C4315F4403F12
:104A3000046068D000240194D9F8444044F48044D0
:104A4000C9F84440D9F8444023F0030707F18047F0
:104A500004F4804407F59C37019403F0030C019C97
:104A6000D7F808E04FEA8C0C0F2404FA0CF42EEA75
:104A7000040E324CA0424DD004F58064A0424BD0CD
:104A800004F58064A04249D004F58064A04247D078
:104A900004F58064A04245D004F58064A04243D070
:104AA00004F58064A04241D004F58064A0423FD068
:104AB00004F58064A0423DD004F58064A04214BF98
:104AC0000A24092404FA0CF444EA0E04BC60946835
:104AD000F74315F4801F0CBF3C4034439460D46806
:104AE00015F4001F0CBF3C403443D460546815F4E7
:104AF000003F0CBF3C40344354601468ED0354BF86
:104B00003C40344314600133102B7FF43DAF03B0BD
:104B1000BDE8F08F0024D5E70124D3E70224D1E7D4
:104B20000324CFE70424CDE70524CBE70624C9E717
:104B30000724C7E70824C5E7003C01400000024005
:104B4000003802400369194214BF01200020704759
:104B50000AB1816170470904FBE7436901EA030276
:104B600021EA030141EA0241816170477047000078
:104B7000044A5169014208B502D05061FFF7F6FFBF
:104B800008BD00BF003C014001684B6913F480631D
:104B90004FF0000210D06FF480634B61202302635A
:104BA00080F83D3080F83E20036C80F83C2043F0D4
:104BB0000403036401207047184670472DE9F84646
:104BC00006460F4691461D464FEA114A3368BAF130
:104BD000010F0CBF5C699C6927EA0404A4B2B4FA13
:104BE00084F46409A14501D0002017E06A1CEED0CE
:104BF000FFF738FB089BC01AA84201D8002DE5D169
:104C000000232022336386F83D2086F83E30326C44
:104C100086F83C3042F0200232640120BDE8F8867C
:104C20002DE9F04104460F46164698462568686906
:104C300027EA000080B2C0B16B695A0517D52B680E
:104C400043F400732B606FF480636B6120220023B8
:104C5000236384F83D2084F83E30236C43F0040342
:104C60002364002384F83C300120BDE8F081731CEC
:104C7000DDD0FFF7F7FAA0EB0800B04209D9002316
:104C80002022236384F83D2084F83E30236C1343B4
:104C9000E6E7002ECAD1F2E770B504460D46164687
:104CA00023685B691B0601D5002018E02046FFF74A
:104CB0006BFF98B96A1CF3D0FFF7D4FA801BA842A7
:104CC0000ED900232022236384F83D2084F83E304F
:104CD000226C84F83C3042F020022264012070BD36
:104CE000002DDDD1EDE700002DE9F0431546026807
:104CF00085B0DDE90C789946136843F4807313603E
:104D00000E463B46CDF8008000224FF001110446CC
:104D1000FFF754FF236838B11B68DB0502D54FF459
:104D200000732364032620E006F0FE061E611A4984
:104D300043463A462046FFF773FFA8B9236803901D
:104D40005A6903929B690393424639462046039B66
:104D5000FFF7A2FF064660B1236C042B01BF226857
:104D6000136843F4007313600126304605B0BDE8B4
:104D7000F083B9F1010F236802D1EDB21D61F4E7B0
:104D80002A0A1A61394642462046FFF785FF002865
:104D9000E2D12368F1E700BF020001002DE9FF47DF
:104DA0009A46036815461A6842F480621A601A68C7
:104DB000DDE90C7842F480721A600E463B46CDF86D
:104DC000008000224FF001110446FFF7F7FE236830
:104DD00038B11B68DB0544BF4FF400732364032024
:104DE00021E05FFA86F906F0FE061E612B49434674
:104DF0003A462046FFF714FFA0B9236803905A698A
:104E000003929B690393424639462046039BFFF772
:104E100043FF58B1236C042B01BF2268136843F48D
:104E200000731360012004B0BDE8F087BAF1010FF0
:104E300023681AD1EDB242461D6139462046FFF77C
:104E40002BFF02460028E5D121680B6843F48073EC
:104E50000B602046CDF800803B464FF00111FFF774
:104E6000ADFE226860B11368B4E72A0A1A613946B8
:104E700042462046FFF710FF0028CBD12368D9E730
:104E800049F001031361054943463A462046FFF7BE
:104E9000C7FE003818BF0120C5E700BF02000100AF
:104EA00070B504460D46164623685B695B0701D55D
:104EB000002018E02046FFF767FE98B96A1CF3D07F
:104EC000FFF7D0F9801BA8420ED9002320222363CC
:104ED00084F83D2084F83E30226C84F83C3042F067
:104EE00020022264012070BD002DDDD1EDE770B5F8
:104EF00004460D46164621684B6913F0400301D065
:104F0000002011E04A69D2060FD56FF010024A6105
:104F10002022236384F83D2084F83E30236C2364F0
:104F2000002384F83C30012070BDFFF79BF9801B03
:104F3000A84209D900232022236384F83D2084F865
:104F40003E30236C1343EAE7002DD4D1F2E7000092
:104F500070B5044608B9012070BD90F83D3003F0EB
:104F6000FF021BB980F83C20FCF7F8FD242384F8ED
:104F70003D3023681A6822F001021A601A6842F470
:104F800000421A601A6822F400421A6000F066FEBD
:104F90003F4B65689D4294BF3E4B3F4B98428CBF50
:104FA00000230123002BD6D12268394E51683B4B98
:104FB000B0FBF3F321F03F011943B542516088BFC4
:104FC0004FF49676116A88BF734321F03F0184BF86
:104FD0004FF47A76B3FBF6F301330B431362D169D6
:104FE000431E2B4821F44F41854221F0FF0132D866
:104FF0006D0040F6FC70B3FBF5F30133034242D081
:10500000C3F30B031943D161D4E90730116803439B
:1050100021F0C0010B4313609168D4E9030321F42C
:105020000341034321F0FF010B439360D4E90530B2
:10503000D168034321F0FF010B43D360136843F0B1
:105040000103136000202023206484F83D30206396
:1050500084F83E0080E7A06850B905EB4505B3FB36
:10506000F5F30133C3F30B037BB143F40043C9E70A
:1050700019206843B3FBF0F30133C3F30B0323B1EF
:1050800043F44043BEE70423BCE70123BAE700BF73
:10509000A08601007F841E00FF083D0040420F00F3
:1050A0002DE9F743044699460C9E0F469046FFF7BC
:1050B000D9F894F83D30202B054603D0022003B0E8
:1050C000BDE8F08300903C49192301222046FFF7F8
:1050D00075FD0028F2D194F83C30012BEED0206809
:1050E000012384F83C300368D9075EBF036843F0AE
:1050F00001030360036823F400630360212384F841
:105100003D30402384F83E30002323640A9B6362D1
:10511000BDF82C306385638D2385284BE3624246BE
:10512000CDE900654B4639462046FFF7DDFD0028F6
:105130002AD00120C3E7FFF7AFFD40B1236C042B59
:1051400001BF2268136843F400731360F1E7636AD8
:1051500027681A4612F8011B39616262628D218D3F
:10516000013A92B262857A69481E80B25207208560
:105170000AD548B15A783A6102336362638D013BC4
:1051800002399BB221856385238D2A46314620460C
:10519000002BD0D1FFF784FE0028CFD122681368FE
:1051A00043F400731360202384F83D3084F83C00FE
:1051B00084F83E0083E700BF020010000000FFFFFC
:1051C0002DE9F043044687B09946109F0D4690465E
:1051D000FFF748F894F83D30202B064604D002250E
:1051E000284607B0BDE8F0830090764919230122D4
:1051F0002046FFF7E3FC0028F1D194F83C30012B66
:10520000EDD02068012384F83C300368DB075EBFE3
:10521000036843F001030360036823F40063036041
:10522000222384F83D30402384F83E300023236459
:105230000E9B6362BDF83C306385638D2385624BB2
:10524000E3622946CDE900764B4642462046FFF709
:10525000A5FD054608B10125C2E7228D2368B2B934
:1052600002905A6902929A690292029A1A6842F46A
:1052700000721A60DFF85481238D002B2CD120227C
:1052800084F83D2084F83C3084F83E30A8E7012AB9
:105290000AD11A6822F480621A6003905A69039254
:1052A0009A690392039AE1E7022A0ED11A6822F45E
:1052B00080621A601A6842F400621A6004905A69A7
:1052C00004929B690493049BD4E705905A69059264
:1052D0009B690593059BCDE7032B56D8012B15D170
:1052E000324639462046FFF702FE0028B3D1236834
:1052F0001A69636A1A70636A01336362238D013B22
:105300002385638D013B9BB26385B5E7022B009635
:105310003B464FF000024146204619D1FFF74EFCB4
:10532000002898D123681A6842F400721A601A693A
:10533000636A1A70626A531C6362238D013B238582
:10534000638D013B9BB2638523681B695370D2E771
:10535000FFF734FC024600287FF47DAF236819680C
:1053600021F4806119601969636A1970636A0133F5
:105370006362238D013B2385638D013B9BB2638573
:10538000414600963B462046C8E73246394620460D
:10539000FFF7ADFD00287FF45EAF23681A69636AEA
:1053A0001A70626A531C6362238D013B2385638DEF
:1053B000013B9BB263852368596949077FF55CAF60
:1053C000C3E700BF020010000000FFFF040001005F
:1053D00010B590F83D30202BDCB216D1242380F894
:1053E0003D3003681A6822F001021A605A6A22F0FE
:1053F00010025A625A6A114359621A6842F0010255
:105400001A6080F83D40002010BD0220FCE730B556
:1054100090F83D30202BDCB216D10268242380F8AE
:105420003D30136823F001031360556A4FF6F073A3
:105430002B400B439BB25362136843F0010313608C
:1054400080F83D40002030BD0220FCE70068D1F824
:1054500000C0D201843283182DE9F043C6685D682C
:105460004C68D1F8189005F470455D60C5680CF182
:105470000107C5F30B45C6F30B4626443D4445EAF8
:1054800006455D60C668CD68C6F30A062E449D6871
:1054900005F470459D60C7688D68C7F30A0701353C
:1054A0003D4445EA06459D601D690E6925F00705E6
:1054B0001D614FF0000E1E6191F832709D6991F8E8
:1054C0003180C3F818E091F8305045EA096545EAA3
:1054D000082545EA07459D615D6925F0FF055D6189
:1054E0004D695D61DD6925F4E06525F00705DD6145
:1054F000D1E907573D43DD619D6A4D6AC3F828E055
:10550000072E9D629CBF0E4DAE5DDD6A05F0E02565
:10551000DD6288BF01268D6AC96AA4EB0C0474435E
:105520007543033444EA0544DC621C6B6FF30A04E0
:105530001C631963835843F001038350BDE8F08373
:10554000A45C010838B50446002863D090F8A13067
:1055500003F0FF021BB980F8A020FCF75BFB0223DD
:1055600084F8A13023689A6922F070429A61D4E9E4
:1055700001200243E06899690243206902430A431B
:105580009A619A68244960690A409A609A6842EA76
:105590000042A06902439A60DA68E0690A40DA6072
:1055A000DA6842EA0042206A0243DA601A69606AF5
:1055B0000A401A611A6942EA0042A06A02431A616B
:1055C0005A690A405A615A69E16A42EA0142216B0A
:1055D0000A435A61DA6A94F8350094F8361002F0FA
:1055E0007F42DA62DD6A94F834202A4342EA0022DC
:1055F00042EA0142DA625A6B42F006025A639A6941
:1056000042F001029A6100200123C4F8A40084F84A
:10561000A13038BD0120FCE700F800F0704770476A
:10562000036870B59E6B5D6B7207044614D56907FD
:1056300012D55A6B22F004025A630422DA63D0F8BE
:10564000A43043F00103C0F8A430002380F8A12067
:1056500080F8A030FFF7E2FFB20716D5AB0714D5EC
:1056600023685A6B22F002025A630222DA63D4F8EA
:10567000A4301343C4F8A430042384F8A1300023D9
:1056800084F8A0302046FFF7C9FFF00710D5E907DE
:105690000ED523685A6B22F001025A630122DA63A5
:1056A000002384F8A12084F8A0302046FBF7D4FD25
:1056B000320711D52B070FD523685A6B22F0080249
:1056C0005A630822DA63012384F8A130002384F8A6
:1056D000A0302046FFF7A3FF70BD2DE9F04190F800
:1056E000A030012B06460F4694464FF002001FD013
:1056F0004FF0010886F8A08086F8A10034240D46FA
:1057000004FB02640FCD38340FC40FCD0FC40FCD8E
:105710000FC42B682360304662463946FFF796FE79
:1057200033680020C3F8248086F8A18086F8A000A2
:10573000BDE8F08190F8A020012A03464FF0020056
:1057400012D01A6883F8A100506B20F0010050635A
:1057500006480164516B41F00101516300200122B0
:1057600083F8A12083F8A000704700BF00680140C3
:105770002DE9F341044640B30368DE0710D42368E3
:105780009D075BD42368190700F19D8023685A07A1
:1057900000F1BD80A369002B40F0248100202CE0A3
:1057A0008D4B9A6802F00C02042A07D09A6802F026
:1057B0000C02082A0BD15B68590208D5864B1B687E
:1057C0009A03DCD56368002BD9D1012015E063680A
:1057D000814DB3F5803F13D12B6843F480332B60A8
:1057E000FEF740FD7C4E054633689B03C7D4FEF7A9
:1057F00039FD401B6428F7D9032002B0BDE8F081D1
:10580000B3F5A02F04D12B6843F480232B60E3E78A
:105810002A6822F480322A602A6822F480222A60D0
:10582000002BDDD1FEF71EFD06462B689F03A6D593
:10583000FEF718FD801B6428F7D9DDE7664B9A68F0
:1058400012F00C0F07D09A6802F00C02082A11D14E
:105850005B685D020ED4604A1368990702D5E3685D
:10586000012BB2D11368216923F0F80343EAC10385
:10587000136087E7E268594BB2B101221A60FEF764
:10588000F1FC554D06462B689B0707D52B6822690E
:1058900023F0F80343EAC2032B6073E7FEF7E2FC50
:1058A000801B0228EFD9A7E71A60FEF7DBFC4A4EFF
:1058B000054633689F077FF565AFFEF7D3FC401BB5
:1058C0000228F6D998E76269444B82B10122C3F8F5
:1058D000802EFEF7C7FC404E0546736F9B073FF5D1
:1058E00055AFFEF7BFFC401B0228F6D984E7C3F88A
:1058F000802EFEF7B7FC384E0546736F9F077FF585
:1059000045AFFEF7AFFC401B0228F6D974E7324BD7
:105910001A6C12F0805228D101921A6C42F0805217
:105920001A641B6C03F080530193019B01272C4DDB
:105930002B68D8051BD5A368274D012B27D12B6FCA
:1059400043F001032B67FEF78DFC234E054641F221
:105950008838336F9A0739D5002F3FF41BAF1E4AA2
:10596000136C23F08053136414E70027DFE72B68E0
:1059700043F480732B60FEF775FC06462B68D9054F
:10598000D9D4FEF76FFC801B0228F7D934E7052B2A
:1059900004D12B6F43F004032B67D0E72A6F22F06A
:1059A00001022A672A6F22F004022A67002BCAD15B
:1059B000FEF758FC41F2883806462B6F9B07CBD583
:1059C000FEF750FC801B4045F7D915E7FEF74AFC6F
:1059D000401B4045BDD90FE7003802400000474258
:1059E00000700040374DAA6802F00C02082A3ED031
:1059F000022B354B4FF000021A662BD1FEF732FC1A
:105A000006462B6899011FD4D4E907321343626A12
:105A100043EA8213E26A43EA0263A26A5208013A45
:105A200043EA02436B60284B264D01221A66FEF7BB
:105A300019FC04462B689A013FF5B0AEFEF712FC44
:105A4000001B0228F6D9D7E6FEF70CFC801B0228C3
:105A5000D7D9D1E6FEF706FC04462B689B017FF5FB
:105A60009DAEFEF7FFFB001B0228F6D9C4E6012B12
:105A70003FF4ABAE6B68E26903F4800191427FF4BE
:105A8000A4AE216A03F03F028A427FF49EAE616AAF
:105A900047F6C0721A40B2EB811F7FF496AEA26A3D
:105AA000520803F44031013AB1EB024F7FF48DAE5E
:105AB000E26A03F07063B3EB026F14BF01200020B1
:105AC0009BE600BF0038024000004742134908B57A
:105AD0008B6803F00C03042B1CD0082B1CD14A68E4
